{
  "contractName": "StandardBounties",
  "abi": [
    {
      "constant": true,
      "inputs": [],
      "name": "owner",
      "outputs": [
        {
          "name": "",
          "type": "address"
        }
      ],
      "payable": false,
      "stateMutability": "view",
      "type": "function"
    },
    {
      "constant": true,
      "inputs": [
        {
          "name": "",
          "type": "uint256"
        }
      ],
      "name": "bounties",
      "outputs": [
        {
          "name": "issuer",
          "type": "address"
        },
        {
          "name": "deadline",
          "type": "uint256"
        },
        {
          "name": "data",
          "type": "string"
        },
        {
          "name": "fulfillmentAmount",
          "type": "uint256"
        },
        {
          "name": "arbiter",
          "type": "address"
        },
        {
          "name": "paysTokens",
          "type": "bool"
        },
        {
          "name": "bountyStage",
          "type": "uint8"
        },
        {
          "name": "balance",
          "type": "uint256"
        }
      ],
      "payable": false,
      "stateMutability": "view",
      "type": "function"
    },
    {
      "inputs": [
        {
          "name": "_owner",
          "type": "address"
        }
      ],
      "payable": false,
      "stateMutability": "nonpayable",
      "type": "constructor"
    },
    {
      "anonymous": false,
      "inputs": [
        {
          "indexed": false,
          "name": "bountyId",
          "type": "uint256"
        }
      ],
      "name": "BountyIssued",
      "type": "event"
    },
    {
      "anonymous": false,
      "inputs": [
        {
          "indexed": false,
          "name": "bountyId",
          "type": "uint256"
        },
        {
          "indexed": false,
          "name": "issuer",
          "type": "address"
        }
      ],
      "name": "BountyActivated",
      "type": "event"
    },
    {
      "anonymous": false,
      "inputs": [
        {
          "indexed": false,
          "name": "bountyId",
          "type": "uint256"
        },
        {
          "indexed": true,
          "name": "fulfiller",
          "type": "address"
        },
        {
          "indexed": true,
          "name": "_fulfillmentId",
          "type": "uint256"
        }
      ],
      "name": "BountyFulfilled",
      "type": "event"
    },
    {
      "anonymous": false,
      "inputs": [
        {
          "indexed": false,
          "name": "_bountyId",
          "type": "uint256"
        },
        {
          "indexed": false,
          "name": "_fulfillmentId",
          "type": "uint256"
        }
      ],
      "name": "FulfillmentUpdated",
      "type": "event"
    },
    {
      "anonymous": false,
      "inputs": [
        {
          "indexed": false,
          "name": "bountyId",
          "type": "uint256"
        },
        {
          "indexed": true,
          "name": "fulfiller",
          "type": "address"
        },
        {
          "indexed": true,
          "name": "_fulfillmentId",
          "type": "uint256"
        }
      ],
      "name": "FulfillmentAccepted",
      "type": "event"
    },
    {
      "anonymous": false,
      "inputs": [
        {
          "indexed": false,
          "name": "bountyId",
          "type": "uint256"
        },
        {
          "indexed": true,
          "name": "issuer",
          "type": "address"
        }
      ],
      "name": "BountyKilled",
      "type": "event"
    },
    {
      "anonymous": false,
      "inputs": [
        {
          "indexed": false,
          "name": "bountyId",
          "type": "uint256"
        },
        {
          "indexed": true,
          "name": "contributor",
          "type": "address"
        },
        {
          "indexed": false,
          "name": "value",
          "type": "uint256"
        }
      ],
      "name": "ContributionAdded",
      "type": "event"
    },
    {
      "anonymous": false,
      "inputs": [
        {
          "indexed": false,
          "name": "bountyId",
          "type": "uint256"
        },
        {
          "indexed": false,
          "name": "newDeadline",
          "type": "uint256"
        }
      ],
      "name": "DeadlineExtended",
      "type": "event"
    },
    {
      "anonymous": false,
      "inputs": [
        {
          "indexed": false,
          "name": "bountyId",
          "type": "uint256"
        }
      ],
      "name": "BountyChanged",
      "type": "event"
    },
    {
      "anonymous": false,
      "inputs": [
        {
          "indexed": false,
          "name": "_bountyId",
          "type": "uint256"
        },
        {
          "indexed": true,
          "name": "_newIssuer",
          "type": "address"
        }
      ],
      "name": "IssuerTransferred",
      "type": "event"
    },
    {
      "anonymous": false,
      "inputs": [
        {
          "indexed": false,
          "name": "_bountyId",
          "type": "uint256"
        },
        {
          "indexed": false,
          "name": "_newFulfillmentAmount",
          "type": "uint256"
        }
      ],
      "name": "PayoutIncreased",
      "type": "event"
    },
    {
      "constant": false,
      "inputs": [
        {
          "name": "_issuer",
          "type": "address"
        },
        {
          "name": "_deadline",
          "type": "uint256"
        },
        {
          "name": "_data",
          "type": "string"
        },
        {
          "name": "_fulfillmentAmount",
          "type": "uint256"
        },
        {
          "name": "_arbiter",
          "type": "address"
        },
        {
          "name": "_paysTokens",
          "type": "bool"
        },
        {
          "name": "_tokenContract",
          "type": "address"
        }
      ],
      "name": "issueBounty",
      "outputs": [
        {
          "name": "",
          "type": "uint256"
        }
      ],
      "payable": false,
      "stateMutability": "nonpayable",
      "type": "function"
    },
    {
      "constant": false,
      "inputs": [
        {
          "name": "_issuer",
          "type": "address"
        },
        {
          "name": "_deadline",
          "type": "uint256"
        },
        {
          "name": "_data",
          "type": "string"
        },
        {
          "name": "_fulfillmentAmount",
          "type": "uint256"
        },
        {
          "name": "_arbiter",
          "type": "address"
        },
        {
          "name": "_paysTokens",
          "type": "bool"
        },
        {
          "name": "_tokenContract",
          "type": "address"
        },
        {
          "name": "_value",
          "type": "uint256"
        }
      ],
      "name": "issueAndActivateBounty",
      "outputs": [
        {
          "name": "",
          "type": "uint256"
        }
      ],
      "payable": true,
      "stateMutability": "payable",
      "type": "function"
    },
    {
      "constant": false,
      "inputs": [
        {
          "name": "_bountyId",
          "type": "uint256"
        },
        {
          "name": "_value",
          "type": "uint256"
        }
      ],
      "name": "contribute",
      "outputs": [],
      "payable": true,
      "stateMutability": "payable",
      "type": "function"
    },
    {
      "constant": false,
      "inputs": [
        {
          "name": "_bountyId",
          "type": "uint256"
        },
        {
          "name": "_value",
          "type": "uint256"
        }
      ],
      "name": "activateBounty",
      "outputs": [],
      "payable": true,
      "stateMutability": "payable",
      "type": "function"
    },
    {
      "constant": false,
      "inputs": [
        {
          "name": "_bountyId",
          "type": "uint256"
        },
        {
          "name": "_data",
          "type": "string"
        }
      ],
      "name": "fulfillBounty",
      "outputs": [],
      "payable": false,
      "stateMutability": "nonpayable",
      "type": "function"
    },
    {
      "constant": false,
      "inputs": [
        {
          "name": "_bountyId",
          "type": "uint256"
        },
        {
          "name": "_fulfillmentId",
          "type": "uint256"
        },
        {
          "name": "_data",
          "type": "string"
        }
      ],
      "name": "updateFulfillment",
      "outputs": [],
      "payable": false,
      "stateMutability": "nonpayable",
      "type": "function"
    },
    {
      "constant": false,
      "inputs": [
        {
          "name": "_bountyId",
          "type": "uint256"
        },
        {
          "name": "_fulfillmentId",
          "type": "uint256"
        }
      ],
      "name": "acceptFulfillment",
      "outputs": [],
      "payable": false,
      "stateMutability": "nonpayable",
      "type": "function"
    },
    {
      "constant": false,
      "inputs": [
        {
          "name": "_bountyId",
          "type": "uint256"
        }
      ],
      "name": "killBounty",
      "outputs": [],
      "payable": false,
      "stateMutability": "nonpayable",
      "type": "function"
    },
    {
      "constant": false,
      "inputs": [
        {
          "name": "_bountyId",
          "type": "uint256"
        },
        {
          "name": "_newDeadline",
          "type": "uint256"
        }
      ],
      "name": "extendDeadline",
      "outputs": [],
      "payable": false,
      "stateMutability": "nonpayable",
      "type": "function"
    },
    {
      "constant": false,
      "inputs": [
        {
          "name": "_bountyId",
          "type": "uint256"
        },
        {
          "name": "_newIssuer",
          "type": "address"
        }
      ],
      "name": "transferIssuer",
      "outputs": [],
      "payable": false,
      "stateMutability": "nonpayable",
      "type": "function"
    },
    {
      "constant": false,
      "inputs": [
        {
          "name": "_bountyId",
          "type": "uint256"
        },
        {
          "name": "_newDeadline",
          "type": "uint256"
        }
      ],
      "name": "changeBountyDeadline",
      "outputs": [],
      "payable": false,
      "stateMutability": "nonpayable",
      "type": "function"
    },
    {
      "constant": false,
      "inputs": [
        {
          "name": "_bountyId",
          "type": "uint256"
        },
        {
          "name": "_newData",
          "type": "string"
        }
      ],
      "name": "changeBountyData",
      "outputs": [],
      "payable": false,
      "stateMutability": "nonpayable",
      "type": "function"
    },
    {
      "constant": false,
      "inputs": [
        {
          "name": "_bountyId",
          "type": "uint256"
        },
        {
          "name": "_newFulfillmentAmount",
          "type": "uint256"
        }
      ],
      "name": "changeBountyFulfillmentAmount",
      "outputs": [],
      "payable": false,
      "stateMutability": "nonpayable",
      "type": "function"
    },
    {
      "constant": false,
      "inputs": [
        {
          "name": "_bountyId",
          "type": "uint256"
        },
        {
          "name": "_newArbiter",
          "type": "address"
        }
      ],
      "name": "changeBountyArbiter",
      "outputs": [],
      "payable": false,
      "stateMutability": "nonpayable",
      "type": "function"
    },
    {
      "constant": false,
      "inputs": [
        {
          "name": "_bountyId",
          "type": "uint256"
        },
        {
          "name": "_newFulfillmentAmount",
          "type": "uint256"
        },
        {
          "name": "_value",
          "type": "uint256"
        }
      ],
      "name": "increasePayout",
      "outputs": [],
      "payable": true,
      "stateMutability": "payable",
      "type": "function"
    },
    {
      "constant": true,
      "inputs": [
        {
          "name": "_bountyId",
          "type": "uint256"
        },
        {
          "name": "_fulfillmentId",
          "type": "uint256"
        }
      ],
      "name": "getFulfillment",
      "outputs": [
        {
          "name": "",
          "type": "bool"
        },
        {
          "name": "",
          "type": "address"
        },
        {
          "name": "",
          "type": "string"
        }
      ],
      "payable": false,
      "stateMutability": "view",
      "type": "function"
    },
    {
      "constant": true,
      "inputs": [
        {
          "name": "_bountyId",
          "type": "uint256"
        }
      ],
      "name": "getBounty",
      "outputs": [
        {
          "name": "",
          "type": "address"
        },
        {
          "name": "",
          "type": "uint256"
        },
        {
          "name": "",
          "type": "uint256"
        },
        {
          "name": "",
          "type": "bool"
        },
        {
          "name": "",
          "type": "uint256"
        },
        {
          "name": "",
          "type": "uint256"
        }
      ],
      "payable": false,
      "stateMutability": "view",
      "type": "function"
    },
    {
      "constant": true,
      "inputs": [
        {
          "name": "_bountyId",
          "type": "uint256"
        }
      ],
      "name": "getBountyArbiter",
      "outputs": [
        {
          "name": "",
          "type": "address"
        }
      ],
      "payable": false,
      "stateMutability": "view",
      "type": "function"
    },
    {
      "constant": true,
      "inputs": [
        {
          "name": "_bountyId",
          "type": "uint256"
        }
      ],
      "name": "getBountyData",
      "outputs": [
        {
          "name": "",
          "type": "string"
        }
      ],
      "payable": false,
      "stateMutability": "view",
      "type": "function"
    },
    {
      "constant": true,
      "inputs": [
        {
          "name": "_bountyId",
          "type": "uint256"
        }
      ],
      "name": "getBountyToken",
      "outputs": [
        {
          "name": "",
          "type": "address"
        }
      ],
      "payable": false,
      "stateMutability": "view",
      "type": "function"
    },
    {
      "constant": true,
      "inputs": [],
      "name": "getNumBounties",
      "outputs": [
        {
          "name": "",
          "type": "uint256"
        }
      ],
      "payable": false,
      "stateMutability": "view",
      "type": "function"
    },
    {
      "constant": true,
      "inputs": [
        {
          "name": "_bountyId",
          "type": "uint256"
        }
      ],
      "name": "getNumFulfillments",
      "outputs": [
        {
          "name": "",
          "type": "uint256"
        }
      ],
      "payable": false,
      "stateMutability": "view",
      "type": "function"
    }
  ],
  "bytecode": "0x608060405234801561001057600080fd5b5060405160208061426783398101806040528101908080519060200190929190505050806000806101000a81548173ffffffffffffffffffffffffffffffffffffffff021916908373ffffffffffffffffffffffffffffffffffffffff160217905550506141e4806100836000396000f30060806040526004361061013e576000357c0100000000000000000000000000000000000000000000000000000000900463ffffffff16806316b575091461014357806319dba3d2146101705780631e688c14146101dd5780632d1fdef6146102505780633278ba2f1461028757806341ac5dd0146102b2578063422d4cd61461032f578063452ccadb146103635780635d19606e1461039a578063626a413a146103e7578063788acd7e146104115780637e9e511d1461050e57806386647bac146106085780638c590917146106755780638da5cb5b1461069f578063a60745aa146106f6578063b94b0a3a1461079c578063cdad65761461088a578063d6c0ceab146108d7578063d95834971461090e578063dc2f874414610945578063ee8c4bbf14610a86578063f3d3402a14610b1a578063fbe334f814610b8d575b600080fd5b34801561014f57600080fd5b5061016e60048036038101908080359060200190929190505050610bce565b005b34801561017c57600080fd5b5061019b60048036038101908080359060200190929190505050610f2d565b604051808273ffffffffffffffffffffffffffffffffffffffff1673ffffffffffffffffffffffffffffffffffffffff16815260200191505060405180910390f35b3480156101e957600080fd5b5061024e60048036038101908080359060200190929190803590602001908201803590602001908080601f0160208091040260200160405190810160405280939291908181526020018383808284378201915050505050509192919290505050610f7f565b005b34801561025c57600080fd5b5061028560048036038101908080359060200190929190803590602001909291905050506112b4565b005b34801561029357600080fd5b5061029c6113df565b6040518082815260200191505060405180910390f35b3480156102be57600080fd5b5061032d6004803603810190808035906020019092919080359060200190929190803590602001908201803590602001908080601f01602080910402602001604051908101604052809392919081815260200183838082843782019150505050505091929192905050506113ec565b005b610361600480360381019080803590602001909291908035906020019092919080359060200190929190505050611597565b005b34801561036f57600080fd5b506103986004803603810190808035906020019092919080359060200190929190505050611afd565b005b3480156103a657600080fd5b506103e560048036038101908080359060200190929190803573ffffffffffffffffffffffffffffffffffffffff169060200190929190505050611c44565b005b61040f6004803603810190808035906020019092919080359060200190929190505050611d86565b005b34801561041d57600080fd5b506104f8600480360381019080803573ffffffffffffffffffffffffffffffffffffffff16906020019092919080359060200190929190803590602001908201803590602001908080601f016020809104026020016040519081016040528093929190818152602001838380828437820191505050505050919291929080359060200190929190803573ffffffffffffffffffffffffffffffffffffffff169060200190929190803515159060200190929190803573ffffffffffffffffffffffffffffffffffffffff169060200190929190505050612372565b6040518082815260200191505060405180910390f35b6105f2600480360381019080803573ffffffffffffffffffffffffffffffffffffffff16906020019092919080359060200190929190803590602001908201803590602001908080601f016020809104026020016040519081016040528093929190818152602001838380828437820191505050505050919291929080359060200190929190803573ffffffffffffffffffffffffffffffffffffffff169060200190929190803515159060200190929190803573ffffffffffffffffffffffffffffffffffffffff1690602001909291908035906020019092919050505061261b565b6040518082815260200191505060405180910390f35b34801561061457600080fd5b5061063360048036038101908080359060200190929190505050612b1a565b604051808273ffffffffffffffffffffffffffffffffffffffff1673ffffffffffffffffffffffffffffffffffffffff16815260200191505060405180910390f35b61069d6004803603810190808035906020019092919080359060200190929190505050612b79565b005b3480156106ab57600080fd5b506106b461308a565b604051808273ffffffffffffffffffffffffffffffffffffffff1673ffffffffffffffffffffffffffffffffffffffff16815260200191505060405180910390f35b34801561070257600080fd5b50610721600480360381019080803590602001909291905050506130af565b6040518080602001828103825283818151815260200191508051906020019080838360005b83811015610761578082015181840152602081019050610746565b50505050905090810190601f16801561078e5780820380516001836020036101000a031916815260200191505b509250505060405180910390f35b3480156107a857600080fd5b506107d16004803603810190808035906020019092919080359060200190929190505050613186565b60405180841515151581526020018373ffffffffffffffffffffffffffffffffffffffff1673ffffffffffffffffffffffffffffffffffffffff16815260200180602001828103825283818151815260200191508051906020019080838360005b8381101561084d578082015181840152602081019050610832565b50505050905090810190601f16801561087a5780820380516001836020036101000a031916815260200191505b5094505050505060405180910390f35b34801561089657600080fd5b506108d560048036038101908080359060200190929190803573ffffffffffffffffffffffffffffffffffffffff169060200190929190505050613333565b005b3480156108e357600080fd5b5061090c60048036038101908080359060200190929190803590602001909291905050506134b4565b005b34801561091a57600080fd5b50610943600480360381019080803590602001909291908035906020019092919050505061360b565b005b34801561095157600080fd5b5061097060048036038101908080359060200190929190505050613c3b565b604051808973ffffffffffffffffffffffffffffffffffffffff1673ffffffffffffffffffffffffffffffffffffffff168152602001888152602001806020018781526020018673ffffffffffffffffffffffffffffffffffffffff1673ffffffffffffffffffffffffffffffffffffffff168152602001851515151581526020018460028111156109fe57fe5b60ff168152602001838152602001828103825288818151815260200191508051906020019080838360005b83811015610a44578082015181840152602081019050610a29565b50505050905090810190601f168015610a715780820380516001836020036101000a031916815260200191505b50995050505050505050505060405180910390f35b348015610a9257600080fd5b50610ab160048036038101908080359060200190929190505050613d84565b604051808773ffffffffffffffffffffffffffffffffffffffff1673ffffffffffffffffffffffffffffffffffffffff16815260200186815260200185815260200184151515158152602001838152602001828152602001965050505050505060405180910390f35b348015610b2657600080fd5b50610b8b60048036038101908080359060200190929190803590602001908201803590602001908080601f0160208091040260200160405190810160405280939291908181526020018383808284378201915050505050509192919290505050613ec2565b005b348015610b9957600080fd5b50610bb860048036038101908080359060200190929190505050614019565b6040518082815260200191505060405180910390f35b60008160018054905081101515610be457600080fd5b82600181815481101515610bf457fe5b906000526020600020906006020160000160009054906101000a900473ffffffffffffffffffffffffffffffffffffffff1673ffffffffffffffffffffffffffffffffffffffff163373ffffffffffffffffffffffffffffffffffffffff16141515610c5f57600080fd5b610c6a84600261404e565b600184815481101515610c7957fe5b90600052602060002090600602016005015492506000600185815481101515610c9e57fe5b9060005260206000209060060201600501819055506000831115610ed957600184815481101515610ccb57fe5b906000526020600020906006020160040160149054906101000a900460ff1615610e50576004600085815260200190815260200160002060009054906101000a900473ffffffffffffffffffffffffffffffffffffffff1673ffffffffffffffffffffffffffffffffffffffff1663a9059cbb600186815481101515610d4d57fe5b906000526020600020906006020160000160009054906101000a900473ffffffffffffffffffffffffffffffffffffffff16856040518363ffffffff167c0100000000000000000000000000000000000000000000000000000000028152600401808373ffffffffffffffffffffffffffffffffffffffff1673ffffffffffffffffffffffffffffffffffffffff16815260200182815260200192505050602060405180830381600087803b158015610e0557600080fd5b505af1158015610e19573d6000803e3d6000fd5b505050506040513d6020811015610e2f57600080fd5b81019080805190602001909291905050501515610e4b57600080fd5b610ed8565b600184815481101515610e5f57fe5b906000526020600020906006020160000160009054906101000a900473ffffffffffffffffffffffffffffffffffffffff1673ffffffffffffffffffffffffffffffffffffffff166108fc849081150290604051600060405180830381858888f19350505050158015610ed6573d6000803e3d6000fd5b505b5b3373ffffffffffffffffffffffffffffffffffffffff167f1b5171f0f6cd238c5b76b002b28e5c29dc3864174e7ed7f168b5e6373196d901856040518082815260200191505060405180910390a250505050565b60008160018054905081101515610f4357600080fd5b6004600084815260200190815260200160002060009054906101000a900473ffffffffffffffffffffffffffffffffffffffff16915050919050565b8160018054905081101515610f9357600080fd5b8260026000828152602001908152602001600020805490506001600260008481526020019081526020016000208054905001111515610fd157600080fd5b836001806002811115610fe057fe5b600183815481101515610fef57fe5b906000526020600020906006020160040160159054906101000a900460ff16600281111561101957fe5b14151561102557600080fd5b8560018181548110151561103557fe5b9060005260206000209060060201600101544210151561105457600080fd5b8660018181548110151561106457fe5b906000526020600020906006020160000160009054906101000a900473ffffffffffffffffffffffffffffffffffffffff1673ffffffffffffffffffffffffffffffffffffffff163373ffffffffffffffffffffffffffffffffffffffff161415801561113d57506001818154811015156110db57fe5b906000526020600020906006020160040160009054906101000a900473ffffffffffffffffffffffffffffffffffffffff1673ffffffffffffffffffffffffffffffffffffffff163373ffffffffffffffffffffffffffffffffffffffff1614155b151561114857600080fd5b600260008981526020019081526020016000206060604051908101604052806000151581526020013373ffffffffffffffffffffffffffffffffffffffff168152602001898152509080600181540180825580915050906001820390600052602060002090600202016000909192909190915060008201518160000160006101000a81548160ff02191690831515021790555060208201518160000160016101000a81548173ffffffffffffffffffffffffffffffffffffffff021916908373ffffffffffffffffffffffffffffffffffffffff160217905550604082015181600101908051906020019061123e929190614093565b505050506001600260008a815260200190815260200160002080549050033373ffffffffffffffffffffffffffffffffffffffff167feb70bc86dda3bbb4f37b25318d4737f2641d3e315df2f59a123c5a06197103578a6040518082815260200191505060405180910390a35050505050505050565b81600180549050811015156112c857600080fd5b826001818154811015156112d857fe5b906000526020600020906006020160000160009054906101000a900473ffffffffffffffffffffffffffffffffffffffff1673ffffffffffffffffffffffffffffffffffffffff163373ffffffffffffffffffffffffffffffffffffffff1614151561134357600080fd5b838360018281548110151561135457fe5b9060005260206000209060060201600101548111151561137357600080fd5b8460018781548110151561138357fe5b9060005260206000209060060201600101819055507f073d5fd87a7e0c2a384727f9aab2e84826370623aba582638b425a417e799a2c8686604051808381526020018281526020019250505060405180910390a1505050505050565b6000600180549050905090565b826001805490508110151561140057600080fd5b838360026000838152602001908152602001600020805490508110151561142657600080fd5b8585600260008381526020019081526020016000208181548110151561144857fe5b906000526020600020906002020160000160019054906101000a900473ffffffffffffffffffffffffffffffffffffffff1673ffffffffffffffffffffffffffffffffffffffff163373ffffffffffffffffffffffffffffffffffffffff161415156114b357600080fd5b87876000151560026000848152602001908152602001600020828154811015156114d957fe5b906000526020600020906002020160000160009054906101000a900460ff16151514151561150657600080fd5b87600260008c81526020019081526020016000208a81548110151561152757fe5b9060005260206000209060020201600101908051906020019061154b929190614113565b507f6e609af2c76c6673122c9a6ee1677adc2e9f20ec9979d056bf6c4f40799b95588a8a604051808381526020018281526020019250505060405180910390a150505050505050505050565b82600180549050811015156115ab57600080fd5b836001818154811015156115bb57fe5b906000526020600020906006020160000160009054906101000a900473ffffffffffffffffffffffffffffffffffffffff1673ffffffffffffffffffffffffffffffffffffffff163373ffffffffffffffffffffffffffffffffffffffff1614151561162657600080fd5b84848060018381548110151561163857fe5b90600052602060002090600602016003015410151561165657600080fd5b8685600060018381548110151561166957fe5b906000526020600020906006020160040160149054906101000a900460ff1615611a1f5760003414151561169c57600080fd5b6004600084815260200190815260200160002060009054906101000a900473ffffffffffffffffffffffffffffffffffffffff1673ffffffffffffffffffffffffffffffffffffffff166370a08231306040518263ffffffff167c0100000000000000000000000000000000000000000000000000000000028152600401808273ffffffffffffffffffffffffffffffffffffffff1673ffffffffffffffffffffffffffffffffffffffff168152602001915050602060405180830381600087803b15801561176a57600080fd5b505af115801561177e573d6000803e3d6000fd5b505050506040513d602081101561179457600080fd5b81019080805190602001909291905050509050600082141515611902576004600084815260200190815260200160002060009054906101000a900473ffffffffffffffffffffffffffffffffffffffff1673ffffffffffffffffffffffffffffffffffffffff166323b872dd3330856040518463ffffffff167c0100000000000000000000000000000000000000000000000000000000028152600401808473ffffffffffffffffffffffffffffffffffffffff1673ffffffffffffffffffffffffffffffffffffffff1681526020018373ffffffffffffffffffffffffffffffffffffffff1673ffffffffffffffffffffffffffffffffffffffff1681526020018281526020019350505050602060405180830381600087803b1580156118bb57600080fd5b505af11580156118cf573d6000803e3d6000fd5b505050506040513d60208110156118e557600080fd5b8101908080519060200190929190505050151561190157600080fd5b5b81816004600086815260200190815260200160002060009054906101000a900473ffffffffffffffffffffffffffffffffffffffff1673ffffffffffffffffffffffffffffffffffffffff166370a08231306040518263ffffffff167c0100000000000000000000000000000000000000000000000000000000028152600401808273ffffffffffffffffffffffffffffffffffffffff1673ffffffffffffffffffffffffffffffffffffffff168152602001915050602060405180830381600087803b1580156119d257600080fd5b505af11580156119e6573d6000803e3d6000fd5b505050506040513d60208110156119fc57600080fd5b810190808051906020019092919050505003141515611a1a57600080fd5b611a31565b3460018302141515611a3057600080fd5b5b8760018b815481101515611a4157fe5b9060005260206000209060060201600501600082825401925050819055508860018b815481101515611a6f57fe5b90600052602060002090600602016005015410151515611a8e57600080fd5b8860018b815481101515611a9e57fe5b9060005260206000209060060201600301819055507e61c78e3c7ddc2b1bfc8ba5996c63dd51b289e6ee3bd6f0e55089cf698aa6928a8a604051808381526020018281526020019250505060405180910390a150505050505050505050565b8160018054905081101515611b1157600080fd5b82600181815481101515611b2157fe5b906000526020600020906006020160000160009054906101000a900473ffffffffffffffffffffffffffffffffffffffff1673ffffffffffffffffffffffffffffffffffffffff163373ffffffffffffffffffffffffffffffffffffffff16141515611b8c57600080fd5b836000806002811115611b9b57fe5b600183815481101515611baa57fe5b906000526020600020906006020160040160159054906101000a900460ff166002811115611bd457fe5b141515611be057600080fd5b84600187815481101515611bf057fe5b9060005260206000209060060201600301819055507ffb8e4f1ace1b37ebd0423cd75b120660780cc08a9414e04fe6b50f96a9482dde866040518082815260200191505060405180910390a1505050505050565b8160018054905081101515611c5857600080fd5b82600181815481101515611c6857fe5b906000526020600020906006020160000160009054906101000a900473ffffffffffffffffffffffffffffffffffffffff1673ffffffffffffffffffffffffffffffffffffffff163373ffffffffffffffffffffffffffffffffffffffff16141515611cd357600080fd5b82600185815481101515611ce357fe5b906000526020600020906006020160000160006101000a81548173ffffffffffffffffffffffffffffffffffffffff021916908373ffffffffffffffffffffffffffffffffffffffff1602179055508273ffffffffffffffffffffffffffffffffffffffff167f76a6676aed9f1a70fb8043b568311724b5e4cec1d68ff8fc9d5ab0a6fa619c17856040518082815260200191505060405180910390a250505050565b8160018054905081101515611d9a57600080fd5b82600181815481101515611daa57fe5b90600052602060002090600602016001015442101515611dc957600080fd5b83600181815481101515611dd957fe5b906000526020600020906006020160000160009054906101000a900473ffffffffffffffffffffffffffffffffffffffff1673ffffffffffffffffffffffffffffffffffffffff163373ffffffffffffffffffffffffffffffffffffffff16141515611e4457600080fd5b84846000600183815481101515611e5757fe5b906000526020600020906006020160040160149054906101000a900460ff161561220d57600034141515611e8a57600080fd5b6004600084815260200190815260200160002060009054906101000a900473ffffffffffffffffffffffffffffffffffffffff1673ffffffffffffffffffffffffffffffffffffffff166370a08231306040518263ffffffff167c0100000000000000000000000000000000000000000000000000000000028152600401808273ffffffffffffffffffffffffffffffffffffffff1673ffffffffffffffffffffffffffffffffffffffff168152602001915050602060405180830381600087803b158015611f5857600080fd5b505af1158015611f6c573d6000803e3d6000fd5b505050506040513d6020811015611f8257600080fd5b810190808051906020019092919050505090506000821415156120f0576004600084815260200190815260200160002060009054906101000a900473ffffffffffffffffffffffffffffffffffffffff1673ffffffffffffffffffffffffffffffffffffffff166323b872dd3330856040518463ffffffff167c0100000000000000000000000000000000000000000000000000000000028152600401808473ffffffffffffffffffffffffffffffffffffffff1673ffffffffffffffffffffffffffffffffffffffff1681526020018373ffffffffffffffffffffffffffffffffffffffff1673ffffffffffffffffffffffffffffffffffffffff1681526020018281526020019350505050602060405180830381600087803b1580156120a957600080fd5b505af11580156120bd573d6000803e3d6000fd5b505050506040513d60208110156120d357600080fd5b810190808051906020019092919050505015156120ef57600080fd5b5b81816004600086815260200190815260200160002060009054906101000a900473ffffffffffffffffffffffffffffffffffffffff1673ffffffffffffffffffffffffffffffffffffffff166370a08231306040518263ffffffff167c0100000000000000000000000000000000000000000000000000000000028152600401808273ffffffffffffffffffffffffffffffffffffffff1673ffffffffffffffffffffffffffffffffffffffff168152602001915050602060405180830381600087803b1580156121c057600080fd5b505af11580156121d4573d6000803e3d6000fd5b505050506040513d60208110156121ea57600080fd5b81019080805190602001909291905050500314151561220857600080fd5b61221f565b346001830214151561221e57600080fd5b5b8660018981548110151561222f57fe5b90600052602060002090600602016005016000828254019250508190555060018881548110151561225c57fe5b90600052602060002090600602016003015460018981548110151561227d57fe5b9060005260206000209060060201600501541015151561229c57600080fd5b6122a788600161404e565b3373ffffffffffffffffffffffffffffffffffffffff167f75aecd8d57cb4b1b263271bddb4961b993924dd466e6003c254832572d8a57e18989604051808381526020018281526020019250505060405180910390a27fe42c1b76efa2e9aa5b354a151174590827beb1ef94bde26787491bf4e7d68a198833604051808381526020018273ffffffffffffffffffffffffffffffffffffffff1673ffffffffffffffffffffffffffffffffffffffff1681526020019250505060405180910390a15050505050505050565b600086428111151561238357600080fd5b856000811415151561239457600080fd5b60018054905060018080549050011115156123ae57600080fd5b6001610100604051908101604052808c73ffffffffffffffffffffffffffffffffffffffff1681526020018b81526020018a81526020018981526020018873ffffffffffffffffffffffffffffffffffffffff16815260200187151581526020016000600281111561241c57fe5b815260200160008152509080600181540180825580915050906001820390600052602060002090600602016000909192909190915060008201518160000160006101000a81548173ffffffffffffffffffffffffffffffffffffffff021916908373ffffffffffffffffffffffffffffffffffffffff1602179055506020820151816001015560408201518160020190805190602001906124be929190614093565b506060820151816003015560808201518160040160006101000a81548173ffffffffffffffffffffffffffffffffffffffff021916908373ffffffffffffffffffffffffffffffffffffffff16021790555060a08201518160040160146101000a81548160ff02191690831515021790555060c08201518160040160156101000a81548160ff0219169083600281111561255457fe5b021790555060e0820151816005015550505084156125c65783600460006001808054905003815260200190815260200160002060006101000a81548173ffffffffffffffffffffffffffffffffffffffff021916908373ffffffffffffffffffffffffffffffffffffffff1602179055505b7fe04ac09e4a49338f40cf62a51ba721823ed22f57bc4d53c6f8684bdb1be8fd1060018080549050036040518082815260200191505060405180910390a1600180805490500392505050979650505050505050565b600087428111151561262c57600080fd5b866000811415151561263d57600080fd5b600180549050600180805490500111151561265757600080fd5b87841015151561266657600080fd5b851561282c5760003414151561267b57600080fd5b8460046000600180549050815260200190815260200160002060006101000a81548173ffffffffffffffffffffffffffffffffffffffff021916908373ffffffffffffffffffffffffffffffffffffffff16021790555060046000600180549050815260200190815260200160002060009054906101000a900473ffffffffffffffffffffffffffffffffffffffff1673ffffffffffffffffffffffffffffffffffffffff166323b872dd3330876040518463ffffffff167c0100000000000000000000000000000000000000000000000000000000028152600401808473ffffffffffffffffffffffffffffffffffffffff1673ffffffffffffffffffffffffffffffffffffffff1681526020018373ffffffffffffffffffffffffffffffffffffffff1673ffffffffffffffffffffffffffffffffffffffff1681526020018281526020019350505050602060405180830381600087803b1580156127e157600080fd5b505af11580156127f5573d6000803e3d6000fd5b505050506040513d602081101561280b57600080fd5b8101908080519060200190929190505050151561282757600080fd5b61283e565b346001850214151561283d57600080fd5b5b6001610100604051908101604052808d73ffffffffffffffffffffffffffffffffffffffff1681526020018c81526020018b81526020018a81526020018973ffffffffffffffffffffffffffffffffffffffff1681526020018815158152602001600160028111156128ac57fe5b8152602001868152509080600181540180825580915050906001820390600052602060002090600602016000909192909190915060008201518160000160006101000a81548173ffffffffffffffffffffffffffffffffffffffff021916908373ffffffffffffffffffffffffffffffffffffffff16021790555060208201518160010155604082015181600201908051906020019061294d929190614093565b506060820151816003015560808201518160040160006101000a81548173ffffffffffffffffffffffffffffffffffffffff021916908373ffffffffffffffffffffffffffffffffffffffff16021790555060a08201518160040160146101000a81548160ff02191690831515021790555060c08201518160040160156101000a81548160ff021916908360028111156129e357fe5b021790555060e082015181600501555050507fe04ac09e4a49338f40cf62a51ba721823ed22f57bc4d53c6f8684bdb1be8fd1060018080549050036040518082815260200191505060405180910390a13373ffffffffffffffffffffffffffffffffffffffff167f75aecd8d57cb4b1b263271bddb4961b993924dd466e6003c254832572d8a57e1600180805490500386604051808381526020018281526020019250505060405180910390a27fe42c1b76efa2e9aa5b354a151174590827beb1ef94bde26787491bf4e7d68a19600180805490500333604051808381526020018273ffffffffffffffffffffffffffffffffffffffff1673ffffffffffffffffffffffffffffffffffffffff1681526020019250505060405180910390a160018080549050039250505098975050505050505050565b60008160018054905081101515612b3057600080fd5b600183815481101515612b3f57fe5b906000526020600020906006020160040160009054906101000a900473ffffffffffffffffffffffffffffffffffffffff16915050919050565b8160018054905081101515612b8d57600080fd5b82600181815481101515612b9d57fe5b90600052602060002090600602016001015442101515612bbc57600080fd5b83600280811115612bc957fe5b600182815481101515612bd857fe5b906000526020600020906006020160040160159054906101000a900460ff166002811115612c0257fe5b14151515612c0f57600080fd5b8360008114151515612c2057600080fd5b85856000600183815481101515612c3357fe5b906000526020600020906006020160040160149054906101000a900460ff1615612fe957600034141515612c6657600080fd5b6004600084815260200190815260200160002060009054906101000a900473ffffffffffffffffffffffffffffffffffffffff1673ffffffffffffffffffffffffffffffffffffffff166370a08231306040518263ffffffff167c0100000000000000000000000000000000000000000000000000000000028152600401808273ffffffffffffffffffffffffffffffffffffffff1673ffffffffffffffffffffffffffffffffffffffff168152602001915050602060405180830381600087803b158015612d3457600080fd5b505af1158015612d48573d6000803e3d6000fd5b505050506040513d6020811015612d5e57600080fd5b81019080805190602001909291905050509050600082141515612ecc576004600084815260200190815260200160002060009054906101000a900473ffffffffffffffffffffffffffffffffffffffff1673ffffffffffffffffffffffffffffffffffffffff166323b872dd3330856040518463ffffffff167c0100000000000000000000000000000000000000000000000000000000028152600401808473ffffffffffffffffffffffffffffffffffffffff1673ffffffffffffffffffffffffffffffffffffffff1681526020018373ffffffffffffffffffffffffffffffffffffffff1673ffffffffffffffffffffffffffffffffffffffff1681526020018281526020019350505050602060405180830381600087803b158015612e8557600080fd5b505af1158015612e99573d6000803e3d6000fd5b505050506040513d6020811015612eaf57600080fd5b81019080805190602001909291905050501515612ecb57600080fd5b5b81816004600086815260200190815260200160002060009054906101000a900473ffffffffffffffffffffffffffffffffffffffff1673ffffffffffffffffffffffffffffffffffffffff166370a08231306040518263ffffffff167c0100000000000000000000000000000000000000000000000000000000028152600401808273ffffffffffffffffffffffffffffffffffffffff1673ffffffffffffffffffffffffffffffffffffffff168152602001915050602060405180830381600087803b158015612f9c57600080fd5b505af1158015612fb0573d6000803e3d6000fd5b505050506040513d6020811015612fc657600080fd5b810190808051906020019092919050505003141515612fe457600080fd5b612ffb565b3460018302141515612ffa57600080fd5b5b8760018a81548110151561300b57fe5b9060005260206000209060060201600501600082825401925050819055503373ffffffffffffffffffffffffffffffffffffffff167f75aecd8d57cb4b1b263271bddb4961b993924dd466e6003c254832572d8a57e18a8a604051808381526020018281526020019250505060405180910390a2505050505050505050565b6000809054906101000a900473ffffffffffffffffffffffffffffffffffffffff1681565b606081600180549050811015156130c557600080fd5b6001838154811015156130d457fe5b90600052602060002090600602016002018054600181600116156101000203166002900480601f0160208091040260200160405190810160405280929190818152602001828054600181600116156101000203166002900480156131795780601f1061314e57610100808354040283529160200191613179565b820191906000526020600020905b81548152906001019060200180831161315c57829003601f168201915b5050505050915050919050565b6000806060846001805490508110151561319f57600080fd5b85856002600083815260200190815260200160002080549050811015156131c557600080fd5b60026000898152602001908152602001600020878154811015156131e557fe5b906000526020600020906002020160000160009054906101000a900460ff16600260008a81526020019081526020016000208881548110151561322457fe5b906000526020600020906002020160000160019054906101000a900473ffffffffffffffffffffffffffffffffffffffff16600260008b81526020019081526020016000208981548110151561327657fe5b9060005260206000209060020201600101808054600181600116156101000203166002900480601f01602080910402602001604051908101604052809291908181526020018280546001816001161561010002031660029004801561331c5780601f106132f15761010080835404028352916020019161331c565b820191906000526020600020905b8154815290600101906020018083116132ff57829003601f168201915b505050505090509550955095505050509250925092565b816001805490508110151561334757600080fd5b8260018181548110151561335757fe5b906000526020600020906006020160000160009054906101000a900473ffffffffffffffffffffffffffffffffffffffff1673ffffffffffffffffffffffffffffffffffffffff163373ffffffffffffffffffffffffffffffffffffffff161415156133c257600080fd5b8360008060028111156133d157fe5b6001838154811015156133e057fe5b906000526020600020906006020160040160159054906101000a900460ff16600281111561340a57fe5b14151561341657600080fd5b8460018781548110151561342657fe5b906000526020600020906006020160040160006101000a81548173ffffffffffffffffffffffffffffffffffffffff021916908373ffffffffffffffffffffffffffffffffffffffff1602179055507ffb8e4f1ace1b37ebd0423cd75b120660780cc08a9414e04fe6b50f96a9482dde866040518082815260200191505060405180910390a1505050505050565b81600180549050811015156134c857600080fd5b826001818154811015156134d857fe5b906000526020600020906006020160000160009054906101000a900473ffffffffffffffffffffffffffffffffffffffff1673ffffffffffffffffffffffffffffffffffffffff163373ffffffffffffffffffffffffffffffffffffffff1614151561354357600080fd5b82428111151561355257600080fd5b84600080600281111561356157fe5b60018381548110151561357057fe5b906000526020600020906006020160040160159054906101000a900460ff16600281111561359a57fe5b1415156135a657600080fd5b856001888154811015156135b657fe5b9060005260206000209060060201600101819055507ffb8e4f1ace1b37ebd0423cd75b120660780cc08a9414e04fe6b50f96a9482dde876040518082815260200191505060405180910390a150505050505050565b816001805490508110151561361f57600080fd5b828260026000838152602001908152602001600020805490508110151561364557600080fd5b8460018181548110151561365557fe5b906000526020600020906006020160000160009054906101000a900473ffffffffffffffffffffffffffffffffffffffff1673ffffffffffffffffffffffffffffffffffffffff163373ffffffffffffffffffffffffffffffffffffffff1614806137a457506001818154811015156136ca57fe5b906000526020600020906006020160040160009054906101000a900473ffffffffffffffffffffffffffffffffffffffff1673ffffffffffffffffffffffffffffffffffffffff163373ffffffffffffffffffffffffffffffffffffffff161480156137a35750600073ffffffffffffffffffffffffffffffffffffffff1660018281548110151561375857fe5b906000526020600020906006020160040160009054906101000a900473ffffffffffffffffffffffffffffffffffffffff1673ffffffffffffffffffffffffffffffffffffffff1614155b5b15156137af57600080fd5b8560018060028111156137be57fe5b6001838154811015156137cd57fe5b906000526020600020906006020160040160159054906101000a900460ff1660028111156137f757fe5b14151561380357600080fd5b878760001515600260008481526020019081526020016000208281548110151561382957fe5b906000526020600020906002020160000160009054906101000a900460ff16151514151561385657600080fd5b8960018181548110151561386657fe5b90600052602060002090600602016003015460018281548110151561388757fe5b906000526020600020906006020160050154101515156138a657600080fd5b6001600260008d81526020019081526020016000208b8154811015156138c857fe5b906000526020600020906002020160000160006101000a81548160ff021916908315150217905550600360008c81526020019081526020016000206000815480929190600101919050555060018b81548110151561392257fe5b90600052602060002090600602016003015460018c81548110151561394357fe5b90600052602060002090600602016005016000828254039250508190555060018b81548110151561397057fe5b906000526020600020906006020160040160149054906101000a900460ff1615613b2657600460008c815260200190815260200160002060009054906101000a900473ffffffffffffffffffffffffffffffffffffffff1673ffffffffffffffffffffffffffffffffffffffff1663a9059cbb600260008e81526020019081526020016000208c815481101515613a0357fe5b906000526020600020906002020160000160019054906101000a900473ffffffffffffffffffffffffffffffffffffffff1660018e815481101515613a4457fe5b9060005260206000209060060201600301546040518363ffffffff167c0100000000000000000000000000000000000000000000000000000000028152600401808373ffffffffffffffffffffffffffffffffffffffff1673ffffffffffffffffffffffffffffffffffffffff16815260200182815260200192505050602060405180830381600087803b158015613adb57600080fd5b505af1158015613aef573d6000803e3d6000fd5b505050506040513d6020811015613b0557600080fd5b81019080805190602001909291905050501515613b2157600080fd5b613bdf565b600260008c81526020019081526020016000208a815481101515613b4657fe5b906000526020600020906002020160000160019054906101000a900473ffffffffffffffffffffffffffffffffffffffff1673ffffffffffffffffffffffffffffffffffffffff166108fc60018d815481101515613ba057fe5b9060005260206000209060060201600301549081150290604051600060405180830381858888f19350505050158015613bdd573d6000803e3d6000fd5b505b893373ffffffffffffffffffffffffffffffffffffffff167f7b9dbf959e54bb2ff6e9d505ef00d6b7fb3ce97880816181aecca973c1da31e68d6040518082815260200191505060405180910390a35050505050505050505050565b600181815481101515613c4a57fe5b90600052602060002090600602016000915090508060000160009054906101000a900473ffffffffffffffffffffffffffffffffffffffff1690806001015490806002018054600181600116156101000203166002900480601f016020809104026020016040519081016040528092919081815260200182805460018160011615610100020316600290048015613d225780601f10613cf757610100808354040283529160200191613d22565b820191906000526020600020905b815481529060010190602001808311613d0557829003601f168201915b5050505050908060030154908060040160009054906101000a900473ffffffffffffffffffffffffffffffffffffffff16908060040160149054906101000a900460ff16908060040160159054906101000a900460ff16908060050154905088565b6000806000806000808660018054905081101515613da157600080fd5b600188815481101515613db057fe5b906000526020600020906006020160000160009054906101000a900473ffffffffffffffffffffffffffffffffffffffff16600189815481101515613df157fe5b90600052602060002090600602016001015460018a815481101515613e1257fe5b90600052602060002090600602016003015460018b815481101515613e3357fe5b906000526020600020906006020160040160149054906101000a900460ff1660018c815481101515613e6157fe5b906000526020600020906006020160040160159054906101000a900460ff166002811115613e8b57fe5b60018d815481101515613e9a57fe5b9060005260206000209060060201600501549650965096509650965096505091939550919395565b8160018054905081101515613ed657600080fd5b82600181815481101515613ee657fe5b906000526020600020906006020160000160009054906101000a900473ffffffffffffffffffffffffffffffffffffffff1673ffffffffffffffffffffffffffffffffffffffff163373ffffffffffffffffffffffffffffffffffffffff16141515613f5157600080fd5b836000806002811115613f6057fe5b600183815481101515613f6f57fe5b906000526020600020906006020160040160159054906101000a900460ff166002811115613f9957fe5b141515613fa557600080fd5b84600187815481101515613fb557fe5b90600052602060002090600602016002019080519060200190613fd9929190614113565b507ffb8e4f1ace1b37ebd0423cd75b120660780cc08a9414e04fe6b50f96a9482dde866040518082815260200191505060405180910390a1505050505050565b6000816001805490508110151561402f57600080fd5b6002600084815260200190815260200160002080549050915050919050565b8060018381548110151561405e57fe5b906000526020600020906006020160040160156101000a81548160ff0219169083600281111561408a57fe5b02179055505050565b828054600181600116156101000203166002900490600052602060002090601f016020900481019282601f106140d457805160ff1916838001178555614102565b82800160010185558215614102579182015b828111156141015782518255916020019190600101906140e6565b5b50905061410f9190614193565b5090565b828054600181600116156101000203166002900490600052602060002090601f016020900481019282601f1061415457805160ff1916838001178555614182565b82800160010185558215614182579182015b82811115614181578251825591602001919060010190614166565b5b50905061418f9190614193565b5090565b6141b591905b808211156141b1576000816000905550600101614199565b5090565b905600a165627a7a7230582091e33ea005ab8440e6cb6bd6f13e9962c0fc5e2b24917a8d910a5bfbe5af21800029",
  "source": "pragma solidity ^0.4.18;\nimport \"./inherited/HumanStandardToken.sol\";\n\n/// @title StandardBounties\n/// @dev Used to pay out individuals or groups for task fulfillment through\n/// stepwise work submission, acceptance, and payment\n/// @author Mark Beylin <mark.beylin@consensys.net>, Gonalo S <goncalo.sa@consensys.net>\ncontract StandardBounties {\n\n  /*\n   * Events\n   */\n  event BountyIssued(uint bountyId);\n  event BountyActivated(uint bountyId, address issuer);\n  event BountyFulfilled(uint bountyId, address indexed fulfiller, uint256 indexed _fulfillmentId);\n  event FulfillmentUpdated(uint _bountyId, uint _fulfillmentId);\n  event FulfillmentAccepted(uint bountyId, address indexed fulfiller, uint256 indexed _fulfillmentId);\n  event BountyKilled(uint bountyId, address indexed issuer);\n  event ContributionAdded(uint bountyId, address indexed contributor, uint256 value);\n  event DeadlineExtended(uint bountyId, uint newDeadline);\n  event BountyChanged(uint bountyId);\n  event IssuerTransferred(uint _bountyId, address indexed _newIssuer);\n  event PayoutIncreased(uint _bountyId, uint _newFulfillmentAmount);\n\n\n  /*\n   * Storage\n   */\n\n  address public owner;\n\n  Bounty[] public bounties;\n\n  mapping(uint=>Fulfillment[]) fulfillments;\n  mapping(uint=>uint) numAccepted;\n  mapping(uint=>HumanStandardToken) tokenContracts;\n\n  /*\n   * Enums\n   */\n\n  enum BountyStages {\n      Draft,\n      Active,\n      Dead\n  }\n\n  /*\n   * Structs\n   */\n\n  struct Bounty {\n      address issuer;\n      uint deadline;\n      string data;\n      uint fulfillmentAmount;\n      address arbiter;\n      bool paysTokens;\n      BountyStages bountyStage;\n      uint balance;\n  }\n\n  struct Fulfillment {\n      bool accepted;\n      address fulfiller;\n      string data;\n  }\n\n  /*\n   * Modifiers\n   */\n\n  modifier validateNotTooManyBounties(){\n    require((bounties.length + 1) > bounties.length);\n    _;\n  }\n\n  modifier validateNotTooManyFulfillments(uint _bountyId){\n    require((fulfillments[_bountyId].length + 1) > fulfillments[_bountyId].length);\n    _;\n  }\n\n  modifier validateBountyArrayIndex(uint _bountyId){\n    require(_bountyId < bounties.length);\n    _;\n  }\n\n  modifier onlyIssuer(uint _bountyId) {\n      require(msg.sender == bounties[_bountyId].issuer);\n      _;\n  }\n\n  modifier onlyFulfiller(uint _bountyId, uint _fulfillmentId) {\n      require(msg.sender == fulfillments[_bountyId][_fulfillmentId].fulfiller);\n      _;\n  }\n\n  modifier amountIsNotZero(uint _amount) {\n      require(_amount != 0);\n      _;\n  }\n\n  modifier transferredAmountEqualsValue(uint _bountyId, uint _amount) {\n      if (bounties[_bountyId].paysTokens){\n        require(msg.value == 0);\n        uint oldBalance = tokenContracts[_bountyId].balanceOf(this);\n        if (_amount != 0){\n          require(tokenContracts[_bountyId].transferFrom(msg.sender, this, _amount));\n        }\n        require((tokenContracts[_bountyId].balanceOf(this) - oldBalance) == _amount);\n\n      } else {\n        require((_amount * 1 wei) == msg.value);\n      }\n      _;\n  }\n\n  modifier isBeforeDeadline(uint _bountyId) {\n      require(now < bounties[_bountyId].deadline);\n      _;\n  }\n\n  modifier validateDeadline(uint _newDeadline) {\n      require(_newDeadline > now);\n      _;\n  }\n\n  modifier isAtStage(uint _bountyId, BountyStages _desiredStage) {\n      require(bounties[_bountyId].bountyStage == _desiredStage);\n      _;\n  }\n\n  modifier validateFulfillmentArrayIndex(uint _bountyId, uint _index) {\n      require(_index < fulfillments[_bountyId].length);\n      _;\n  }\n\n  modifier notYetAccepted(uint _bountyId, uint _fulfillmentId){\n      require(fulfillments[_bountyId][_fulfillmentId].accepted == false);\n      _;\n  }\n\n  /*\n   * Public functions\n   */\n\n\n  /// @dev StandardBounties(): instantiates\n  /// @param _owner the issuer of the standardbounties contract, who has the\n  /// ability to remove bounties\n  function StandardBounties(address _owner)\n      public\n  {\n      owner = _owner;\n  }\n\n  /// @dev issueBounty(): instantiates a new draft bounty\n  /// @param _issuer the address of the intended issuer of the bounty\n  /// @param _deadline the unix timestamp after which fulfillments will no longer be accepted\n  /// @param _data the requirements of the bounty\n  /// @param _fulfillmentAmount the amount of wei to be paid out for each successful fulfillment\n  /// @param _arbiter the address of the arbiter who can mediate claims\n  /// @param _paysTokens whether the bounty pays in tokens or in ETH\n  /// @param _tokenContract the address of the contract if _paysTokens is true\n  function issueBounty(\n      address _issuer,\n      uint _deadline,\n      string _data,\n      uint256 _fulfillmentAmount,\n      address _arbiter,\n      bool _paysTokens,\n      address _tokenContract\n  )\n      public\n      validateDeadline(_deadline)\n      amountIsNotZero(_fulfillmentAmount)\n      validateNotTooManyBounties\n      returns (uint)\n  {\n      bounties.push(Bounty(_issuer, _deadline, _data, _fulfillmentAmount, _arbiter, _paysTokens, BountyStages.Draft, 0));\n      if (_paysTokens){\n        tokenContracts[bounties.length - 1] = HumanStandardToken(_tokenContract);\n      }\n      BountyIssued(bounties.length - 1);\n      return (bounties.length - 1);\n  }\n\n  /// @dev issueAndActivateBounty(): instantiates a new draft bounty\n  /// @param _issuer the address of the intended issuer of the bounty\n  /// @param _deadline the unix timestamp after which fulfillments will no longer be accepted\n  /// @param _data the requirements of the bounty\n  /// @param _fulfillmentAmount the amount of wei to be paid out for each successful fulfillment\n  /// @param _arbiter the address of the arbiter who can mediate claims\n  /// @param _paysTokens whether the bounty pays in tokens or in ETH\n  /// @param _tokenContract the address of the contract if _paysTokens is true\n  /// @param _value the total number of tokens being deposited upon activation\n  function issueAndActivateBounty(\n      address _issuer,\n      uint _deadline,\n      string _data,\n      uint256 _fulfillmentAmount,\n      address _arbiter,\n      bool _paysTokens,\n      address _tokenContract,\n      uint256 _value\n  )\n      public\n      payable\n      validateDeadline(_deadline)\n      amountIsNotZero(_fulfillmentAmount)\n      validateNotTooManyBounties\n      returns (uint)\n  {\n      require (_value >= _fulfillmentAmount);\n      if (_paysTokens){\n        require(msg.value == 0);\n        tokenContracts[bounties.length] = HumanStandardToken(_tokenContract);\n        require(tokenContracts[bounties.length].transferFrom(msg.sender, this, _value));\n      } else {\n        require((_value * 1 wei) == msg.value);\n      }\n      bounties.push(Bounty(_issuer,\n                            _deadline,\n                            _data,\n                            _fulfillmentAmount,\n                            _arbiter,\n                            _paysTokens,\n                            BountyStages.Active,\n                            _value));\n      BountyIssued(bounties.length - 1);\n      ContributionAdded(bounties.length - 1, msg.sender, _value);\n      BountyActivated(bounties.length - 1, msg.sender);\n      return (bounties.length - 1);\n  }\n\n  modifier isNotDead(uint _bountyId) {\n      require(bounties[_bountyId].bountyStage != BountyStages.Dead);\n      _;\n  }\n\n  /// @dev contribute(): a function allowing anyone to contribute tokens to a\n  /// bounty, as long as it is still before its deadline. Shouldn't keep\n  /// them by accident (hence 'value').\n  /// @param _bountyId the index of the bounty\n  /// @param _value the amount being contributed in ether to prevent accidental deposits\n  /// @notice Please note you funds will be at the mercy of the issuer\n  ///  and can be drained at any moment. Be careful!\n  function contribute (uint _bountyId, uint _value)\n      payable\n      public\n      validateBountyArrayIndex(_bountyId)\n      isBeforeDeadline(_bountyId)\n      isNotDead(_bountyId)\n      amountIsNotZero(_value)\n      transferredAmountEqualsValue(_bountyId, _value)\n  {\n      bounties[_bountyId].balance += _value;\n\n      ContributionAdded(_bountyId, msg.sender, _value);\n  }\n\n  /// @notice Send funds to activate the bug bounty\n  /// @dev activateBounty(): activate a bounty so it may pay out\n  /// @param _bountyId the index of the bounty\n  /// @param _value the amount being contributed in ether to prevent\n  /// accidental deposits\n  function activateBounty(uint _bountyId, uint _value)\n      payable\n      public\n      validateBountyArrayIndex(_bountyId)\n      isBeforeDeadline(_bountyId)\n      onlyIssuer(_bountyId)\n      transferredAmountEqualsValue(_bountyId, _value)\n  {\n      bounties[_bountyId].balance += _value;\n      require (bounties[_bountyId].balance >= bounties[_bountyId].fulfillmentAmount);\n      transitionToState(_bountyId, BountyStages.Active);\n\n      ContributionAdded(_bountyId, msg.sender, _value);\n      BountyActivated(_bountyId, msg.sender);\n  }\n\n  modifier notIssuerOrArbiter(uint _bountyId) {\n      require(msg.sender != bounties[_bountyId].issuer && msg.sender != bounties[_bountyId].arbiter);\n      _;\n  }\n\n  /// @dev fulfillBounty(): submit a fulfillment for the given bounty\n  /// @param _bountyId the index of the bounty\n  /// @param _data the data artifacts representing the fulfillment of the bounty\n  function fulfillBounty(uint _bountyId, string _data)\n      public\n      validateBountyArrayIndex(_bountyId)\n      validateNotTooManyFulfillments(_bountyId)\n      isAtStage(_bountyId, BountyStages.Active)\n      isBeforeDeadline(_bountyId)\n      notIssuerOrArbiter(_bountyId)\n  {\n      fulfillments[_bountyId].push(Fulfillment(false, msg.sender, _data));\n\n      BountyFulfilled(_bountyId, msg.sender, (fulfillments[_bountyId].length - 1));\n  }\n\n  /// @dev updateFulfillment(): Submit updated data for a given fulfillment\n  /// @param _bountyId the index of the bounty\n  /// @param _fulfillmentId the index of the fulfillment\n  /// @param _data the new data being submitted\n  function updateFulfillment(uint _bountyId, uint _fulfillmentId, string _data)\n      public\n      validateBountyArrayIndex(_bountyId)\n      validateFulfillmentArrayIndex(_bountyId, _fulfillmentId)\n      onlyFulfiller(_bountyId, _fulfillmentId)\n      notYetAccepted(_bountyId, _fulfillmentId)\n  {\n      fulfillments[_bountyId][_fulfillmentId].data = _data;\n      FulfillmentUpdated(_bountyId, _fulfillmentId);\n  }\n\n  modifier onlyIssuerOrArbiter(uint _bountyId) {\n      require(msg.sender == bounties[_bountyId].issuer ||\n         (msg.sender == bounties[_bountyId].arbiter && bounties[_bountyId].arbiter != address(0)));\n      _;\n  }\n\n  modifier fulfillmentNotYetAccepted(uint _bountyId, uint _fulfillmentId) {\n      require(fulfillments[_bountyId][_fulfillmentId].accepted == false);\n      _;\n  }\n\n  modifier enoughFundsToPay(uint _bountyId) {\n      require(bounties[_bountyId].balance >= bounties[_bountyId].fulfillmentAmount);\n      _;\n  }\n\n  /// @dev acceptFulfillment(): accept a given fulfillment\n  /// @param _bountyId the index of the bounty\n  /// @param _fulfillmentId the index of the fulfillment being accepted\n  function acceptFulfillment(uint _bountyId, uint _fulfillmentId)\n      public\n      validateBountyArrayIndex(_bountyId)\n      validateFulfillmentArrayIndex(_bountyId, _fulfillmentId)\n      onlyIssuerOrArbiter(_bountyId)\n      isAtStage(_bountyId, BountyStages.Active)\n      fulfillmentNotYetAccepted(_bountyId, _fulfillmentId)\n      enoughFundsToPay(_bountyId)\n  {\n      fulfillments[_bountyId][_fulfillmentId].accepted = true;\n      numAccepted[_bountyId]++;\n      bounties[_bountyId].balance -= bounties[_bountyId].fulfillmentAmount;\n      if (bounties[_bountyId].paysTokens){\n        require(tokenContracts[_bountyId].transfer(fulfillments[_bountyId][_fulfillmentId].fulfiller, bounties[_bountyId].fulfillmentAmount));\n      } else {\n        fulfillments[_bountyId][_fulfillmentId].fulfiller.transfer(bounties[_bountyId].fulfillmentAmount);\n      }\n      FulfillmentAccepted(_bountyId, msg.sender, _fulfillmentId);\n  }\n\n  /// @dev killBounty(): drains the contract of it's remaining\n  /// funds, and moves the bounty into stage 3 (dead) since it was\n  /// either killed in draft stage, or never accepted any fulfillments\n  /// @param _bountyId the index of the bounty\n  function killBounty(uint _bountyId)\n      public\n      validateBountyArrayIndex(_bountyId)\n      onlyIssuer(_bountyId)\n  {\n      transitionToState(_bountyId, BountyStages.Dead);\n      uint oldBalance = bounties[_bountyId].balance;\n      bounties[_bountyId].balance = 0;\n      if (oldBalance > 0){\n        if (bounties[_bountyId].paysTokens){\n          require(tokenContracts[_bountyId].transfer(bounties[_bountyId].issuer, oldBalance));\n        } else {\n          bounties[_bountyId].issuer.transfer(oldBalance);\n        }\n      }\n      BountyKilled(_bountyId, msg.sender);\n  }\n\n  modifier newDeadlineIsValid(uint _bountyId, uint _newDeadline) {\n      require(_newDeadline > bounties[_bountyId].deadline);\n      _;\n  }\n\n  /// @dev extendDeadline(): allows the issuer to add more time to the\n  /// bounty, allowing it to continue accepting fulfillments\n  /// @param _bountyId the index of the bounty\n  /// @param _newDeadline the new deadline in timestamp format\n  function extendDeadline(uint _bountyId, uint _newDeadline)\n      public\n      validateBountyArrayIndex(_bountyId)\n      onlyIssuer(_bountyId)\n      newDeadlineIsValid(_bountyId, _newDeadline)\n  {\n      bounties[_bountyId].deadline = _newDeadline;\n\n      DeadlineExtended(_bountyId, _newDeadline);\n  }\n\n  /// @dev transferIssuer(): allows the issuer to transfer ownership of the\n  /// bounty to some new address\n  /// @param _bountyId the index of the bounty\n  /// @param _newIssuer the address of the new issuer\n  function transferIssuer(uint _bountyId, address _newIssuer)\n      public\n      validateBountyArrayIndex(_bountyId)\n      onlyIssuer(_bountyId)\n  {\n      bounties[_bountyId].issuer = _newIssuer;\n      IssuerTransferred(_bountyId, _newIssuer);\n  }\n\n\n  /// @dev changeBountyDeadline(): allows the issuer to change a bounty's deadline\n  /// @param _bountyId the index of the bounty\n  /// @param _newDeadline the new deadline for the bounty\n  function changeBountyDeadline(uint _bountyId, uint _newDeadline)\n      public\n      validateBountyArrayIndex(_bountyId)\n      onlyIssuer(_bountyId)\n      validateDeadline(_newDeadline)\n      isAtStage(_bountyId, BountyStages.Draft)\n  {\n      bounties[_bountyId].deadline = _newDeadline;\n      BountyChanged(_bountyId);\n  }\n\n  /// @dev changeData(): allows the issuer to change a bounty's data\n  /// @param _bountyId the index of the bounty\n  /// @param _newData the new requirements of the bounty\n  function changeBountyData(uint _bountyId, string _newData)\n      public\n      validateBountyArrayIndex(_bountyId)\n      onlyIssuer(_bountyId)\n      isAtStage(_bountyId, BountyStages.Draft)\n  {\n      bounties[_bountyId].data = _newData;\n      BountyChanged(_bountyId);\n  }\n\n  /// @dev changeBountyfulfillmentAmount(): allows the issuer to change a bounty's fulfillment amount\n  /// @param _bountyId the index of the bounty\n  /// @param _newFulfillmentAmount the new fulfillment amount\n  function changeBountyFulfillmentAmount(uint _bountyId, uint _newFulfillmentAmount)\n      public\n      validateBountyArrayIndex(_bountyId)\n      onlyIssuer(_bountyId)\n      isAtStage(_bountyId, BountyStages.Draft)\n  {\n      bounties[_bountyId].fulfillmentAmount = _newFulfillmentAmount;\n      BountyChanged(_bountyId);\n  }\n\n  /// @dev changeBountyArbiter(): allows the issuer to change a bounty's arbiter\n  /// @param _bountyId the index of the bounty\n  /// @param _newArbiter the new address of the arbiter\n  function changeBountyArbiter(uint _bountyId, address _newArbiter)\n      public\n      validateBountyArrayIndex(_bountyId)\n      onlyIssuer(_bountyId)\n      isAtStage(_bountyId, BountyStages.Draft)\n  {\n      bounties[_bountyId].arbiter = _newArbiter;\n      BountyChanged(_bountyId);\n  }\n\n  modifier newFulfillmentAmountIsIncrease(uint _bountyId, uint _newFulfillmentAmount) {\n      require(bounties[_bountyId].fulfillmentAmount < _newFulfillmentAmount);\n      _;\n  }\n\n  /// @dev increasePayout(): allows the issuer to increase a given fulfillment\n  /// amount in the active stage\n  /// @param _bountyId the index of the bounty\n  /// @param _newFulfillmentAmount the new fulfillment amount\n  /// @param _value the value of the additional deposit being added\n  function increasePayout(uint _bountyId, uint _newFulfillmentAmount, uint _value)\n      public\n      payable\n      validateBountyArrayIndex(_bountyId)\n      onlyIssuer(_bountyId)\n      newFulfillmentAmountIsIncrease(_bountyId, _newFulfillmentAmount)\n      transferredAmountEqualsValue(_bountyId, _value)\n  {\n      bounties[_bountyId].balance += _value;\n      require(bounties[_bountyId].balance >= _newFulfillmentAmount);\n      bounties[_bountyId].fulfillmentAmount = _newFulfillmentAmount;\n      PayoutIncreased(_bountyId, _newFulfillmentAmount);\n  }\n\n  /// @dev getFulfillment(): Returns the fulfillment at a given index\n  /// @param _bountyId the index of the bounty\n  /// @param _fulfillmentId the index of the fulfillment to return\n  /// @return Returns a tuple for the fulfillment\n  function getFulfillment(uint _bountyId, uint _fulfillmentId)\n      public\n      constant\n      validateBountyArrayIndex(_bountyId)\n      validateFulfillmentArrayIndex(_bountyId, _fulfillmentId)\n      returns (bool, address, string)\n  {\n      return (fulfillments[_bountyId][_fulfillmentId].accepted,\n              fulfillments[_bountyId][_fulfillmentId].fulfiller,\n              fulfillments[_bountyId][_fulfillmentId].data);\n  }\n\n  /// @dev getBounty(): Returns the details of the bounty\n  /// @param _bountyId the index of the bounty\n  /// @return Returns a tuple for the bounty\n  function getBounty(uint _bountyId)\n      public\n      constant\n      validateBountyArrayIndex(_bountyId)\n      returns (address, uint, uint, bool, uint, uint)\n  {\n      return (bounties[_bountyId].issuer,\n              bounties[_bountyId].deadline,\n              bounties[_bountyId].fulfillmentAmount,\n              bounties[_bountyId].paysTokens,\n              uint(bounties[_bountyId].bountyStage),\n              bounties[_bountyId].balance);\n  }\n\n  /// @dev getBountyArbiter(): Returns the arbiter of the bounty\n  /// @param _bountyId the index of the bounty\n  /// @return Returns an address for the arbiter of the bounty\n  function getBountyArbiter(uint _bountyId)\n      public\n      constant\n      validateBountyArrayIndex(_bountyId)\n      returns (address)\n  {\n      return (bounties[_bountyId].arbiter);\n  }\n\n  /// @dev getBountyData(): Returns the data of the bounty\n  /// @param _bountyId the index of the bounty\n  /// @return Returns a string for the bounty data\n  function getBountyData(uint _bountyId)\n      public\n      constant\n      validateBountyArrayIndex(_bountyId)\n      returns (string)\n  {\n      return (bounties[_bountyId].data);\n  }\n\n  /// @dev getBountyToken(): Returns the token contract of the bounty\n  /// @param _bountyId the index of the bounty\n  /// @return Returns an address for the token that the bounty uses\n  function getBountyToken(uint _bountyId)\n      public\n      constant\n      validateBountyArrayIndex(_bountyId)\n      returns (address)\n  {\n      return (tokenContracts[_bountyId]);\n  }\n\n  /// @dev getNumBounties() returns the number of bounties in the registry\n  /// @return Returns the number of bounties\n  function getNumBounties()\n      public\n      constant\n      returns (uint)\n  {\n      return bounties.length;\n  }\n\n  /// @dev getNumFulfillments() returns the number of fulfillments for a given milestone\n  /// @param _bountyId the index of the bounty\n  /// @return Returns the number of fulfillments\n  function getNumFulfillments(uint _bountyId)\n      public\n      constant\n      validateBountyArrayIndex(_bountyId)\n      returns (uint)\n  {\n      return fulfillments[_bountyId].length;\n  }\n\n  /*\n   * Internal functions\n   */\n\n  /// @dev transitionToState(): transitions the contract to the\n  /// state passed in the parameter `_newStage` given the\n  /// conditions stated in the body of the function\n  /// @param _bountyId the index of the bounty\n  /// @param _newStage the new stage to transition to\n  function transitionToState(uint _bountyId, BountyStages _newStage)\n      internal\n  {\n      bounties[_bountyId].bountyStage = _newStage;\n  }\n}\n",
  "sourcePath": "/Users/sponnet/Documents/projects/StandardBounties/contracts/StandardBounties.sol",
  "compiler": {
    "name": "solc",
    "version": "0.4.24+commit.e67f0147.Emscripten.clang"
  },
  "schemaVersion": "2.0.0",
  "updatedAt": "2019-03-09T05:30:17.196Z"
}